{
  "_format": "hh-sol-artifact-1",
  "contractName": "CrowdfundingProjects",
  "sourceName": "contracts/Crowdfunding.sol",
  "abi": [
    {
      "inputs": [
        {
          "internalType": "string",
          "name": "_name",
          "type": "string"
        },
        {
          "internalType": "uint256",
          "name": "_deadline",
          "type": "uint256"
        },
        {
          "internalType": "uint256",
          "name": "_fundingGoal",
          "type": "uint256"
        }
      ],
      "name": "createProject",
      "outputs": [],
      "stateMutability": "nonpayable",
      "type": "function"
    },
    {
      "inputs": [],
      "name": "getArr",
      "outputs": [
        {
          "components": [
            {
              "internalType": "string",
              "name": "projectName",
              "type": "string"
            },
            {
              "internalType": "uint256",
              "name": "deadline",
              "type": "uint256"
            },
            {
              "internalType": "uint256",
              "name": "fundingGoal",
              "type": "uint256"
            },
            {
              "internalType": "uint256",
              "name": "currentFunding",
              "type": "uint256"
            },
            {
              "internalType": "address",
              "name": "creator",
              "type": "address"
            },
            {
              "internalType": "address[]",
              "name": "supporters",
              "type": "address[]"
            }
          ],
          "internalType": "struct CrowdfundingProjects.Project[]",
          "name": "",
          "type": "tuple[]"
        }
      ],
      "stateMutability": "view",
      "type": "function"
    },
    {
      "inputs": [
        {
          "internalType": "uint256",
          "name": "_index",
          "type": "uint256"
        }
      ],
      "name": "newDonation",
      "outputs": [],
      "stateMutability": "payable",
      "type": "function"
    },
    {
      "inputs": [
        {
          "internalType": "uint256",
          "name": "",
          "type": "uint256"
        }
      ],
      "name": "projects",
      "outputs": [
        {
          "internalType": "string",
          "name": "projectName",
          "type": "string"
        },
        {
          "internalType": "uint256",
          "name": "deadline",
          "type": "uint256"
        },
        {
          "internalType": "uint256",
          "name": "fundingGoal",
          "type": "uint256"
        },
        {
          "internalType": "uint256",
          "name": "currentFunding",
          "type": "uint256"
        },
        {
          "internalType": "address",
          "name": "creator",
          "type": "address"
        }
      ],
      "stateMutability": "view",
      "type": "function"
    },
    {
      "inputs": [],
      "name": "userAmountDonated",
      "outputs": [
        {
          "internalType": "uint256",
          "name": "",
          "type": "uint256"
        }
      ],
      "stateMutability": "view",
      "type": "function"
    }
  ],
  "bytecode": "0x608060405234801561001057600080fd5b50610fe6806100206000396000f3fe60806040526004361061004a5760003560e01c806302d26c8b1461004f578063107046bd1461006b578063dda26df4146100ac578063f3a6ac5f146100d7578063fb8cbced14610100575b600080fd5b61006960048036038101906100649190610966565b61012b565b005b34801561007757600080fd5b50610092600480360381019061008d9190610966565b6102a6565b6040516100a3959493929190610c11565b60405180910390f35b3480156100b857600080fd5b506100c1610394565b6040516100ce9190610c8b565b60405180910390f35b3480156100e357600080fd5b506100fe60048036038101906100f991906108ff565b6103db565b005b34801561010c57600080fd5b50610115610516565b6040516101229190610bef565b60405180910390f35b6000808281548110610166577f4e487b7100000000000000000000000000000000000000000000000000000000600052603260045260246000fd5b90600052602060002090600602019050806002015481600301543461018b9190610d9b565b11156101cc576040517f08c379a00000000000000000000000000000000000000000000000000000000081526004016101c390610c6b565b60405180910390fd5b348160030160008282546101e09190610d9b565b9250508190555034600160003373ffffffffffffffffffffffffffffffffffffffff1673ffffffffffffffffffffffffffffffffffffffff16815260200190815260200160002060008282546102369190610d9b565b9250508190555080600501339080600181540180825580915050600190039060005260206000200160009091909190916101000a81548173ffffffffffffffffffffffffffffffffffffffff021916908373ffffffffffffffffffffffffffffffffffffffff1602179055505050565b600081815481106102b657600080fd5b90600052602060002090600602016000915090508060000180546102d990610e6f565b80601f016020809104026020016040519081016040528092919081815260200182805461030590610e6f565b80156103525780601f1061032757610100808354040283529160200191610352565b820191906000526020600020905b81548152906001019060200180831161033557829003601f168201915b5050505050908060010154908060020154908060030154908060040160009054906101000a900473ffffffffffffffffffffffffffffffffffffffff16905085565b6000600160003373ffffffffffffffffffffffffffffffffffffffff1673ffffffffffffffffffffffffffffffffffffffff16815260200190815260200160002054905090565b6103e3610709565b8381600001819052508281602001818152505081816040018181525050600081606001818152505033816080019073ffffffffffffffffffffffffffffffffffffffff16908173ffffffffffffffffffffffffffffffffffffffff16815250506000819080600181540180825580915050600190039060005260206000209060060201600090919091909150600082015181600001908051906020019061048b929190610755565b5060208201518160010155604082015181600201556060820151816003015560808201518160040160006101000a81548173ffffffffffffffffffffffffffffffffffffffff021916908373ffffffffffffffffffffffffffffffffffffffff16021790555060a082015181600501908051906020019061050d9291906107db565b50505050505050565b60606000805480602002602001604051908101604052809291908181526020016000905b8282101561070057838290600052602060002090600602016040518060c001604052908160008201805461056d90610e6f565b80601f016020809104026020016040519081016040528092919081815260200182805461059990610e6f565b80156105e65780601f106105bb576101008083540402835291602001916105e6565b820191906000526020600020905b8154815290600101906020018083116105c957829003601f168201915b505050505081526020016001820154815260200160028201548152602001600382015481526020016004820160009054906101000a900473ffffffffffffffffffffffffffffffffffffffff1673ffffffffffffffffffffffffffffffffffffffff1673ffffffffffffffffffffffffffffffffffffffff168152602001600582018054806020026020016040519081016040528092919081815260200182805480156106e857602002820191906000526020600020905b8160009054906101000a900473ffffffffffffffffffffffffffffffffffffffff1673ffffffffffffffffffffffffffffffffffffffff168152602001906001019080831161069e575b5050505050815250508152602001906001019061053a565b50505050905090565b6040518060c0016040528060608152602001600081526020016000815260200160008152602001600073ffffffffffffffffffffffffffffffffffffffff168152602001606081525090565b82805461076190610e6f565b90600052602060002090601f01602090048101928261078357600085556107ca565b82601f1061079c57805160ff19168380011785556107ca565b828001600101855582156107ca579182015b828111156107c95782518255916020019190600101906107ae565b5b5090506107d79190610865565b5090565b828054828255906000526020600020908101928215610854579160200282015b828111156108535782518260006101000a81548173ffffffffffffffffffffffffffffffffffffffff021916908373ffffffffffffffffffffffffffffffffffffffff160217905550916020019190600101906107fb565b5b5090506108619190610865565b5090565b5b8082111561087e576000816000905550600101610866565b5090565b600061089561089084610ccb565b610ca6565b9050828152602081018484840111156108ad57600080fd5b6108b8848285610e2d565b509392505050565b600082601f8301126108d157600080fd5b81356108e1848260208601610882565b91505092915050565b6000813590506108f981610f99565b92915050565b60008060006060848603121561091457600080fd5b600084013567ffffffffffffffff81111561092e57600080fd5b61093a868287016108c0565b935050602061094b868287016108ea565b925050604061095c868287016108ea565b9150509250925092565b60006020828403121561097857600080fd5b6000610986848285016108ea565b91505092915050565b600061099b83836109bb565b60208301905092915050565b60006109b38383610b41565b905092915050565b6109c481610df1565b82525050565b6109d381610df1565b82525050565b60006109e482610d1c565b6109ee8185610d57565b93506109f983610cfc565b8060005b83811015610a2a578151610a11888261098f565b9750610a1c83610d3d565b9250506001810190506109fd565b5085935050505092915050565b6000610a4282610d27565b610a4c8185610d68565b935083602082028501610a5e85610d0c565b8060005b85811015610a9a5784840389528151610a7b85826109a7565b9450610a8683610d4a565b925060208a01995050600181019050610a62565b50829750879550505050505092915050565b6000610ab782610d32565b610ac18185610d79565b9350610ad1818560208601610e3c565b610ada81610f5f565b840191505092915050565b6000610af082610d32565b610afa8185610d8a565b9350610b0a818560208601610e3c565b610b1381610f5f565b840191505092915050565b6000610b2b601c83610d8a565b9150610b3682610f70565b602082019050919050565b600060c0830160008301518482036000860152610b5e8282610aac565b9150506020830151610b736020860182610bd1565b506040830151610b866040860182610bd1565b506060830151610b996060860182610bd1565b506080830151610bac60808601826109bb565b5060a083015184820360a0860152610bc482826109d9565b9150508091505092915050565b610bda81610e23565b82525050565b610be981610e23565b82525050565b60006020820190508181036000830152610c098184610a37565b905092915050565b600060a0820190508181036000830152610c2b8188610ae5565b9050610c3a6020830187610be0565b610c476040830186610be0565b610c546060830185610be0565b610c6160808301846109ca565b9695505050505050565b60006020820190508181036000830152610c8481610b1e565b9050919050565b6000602082019050610ca06000830184610be0565b92915050565b6000610cb0610cc1565b9050610cbc8282610ea1565b919050565b6000604051905090565b600067ffffffffffffffff821115610ce657610ce5610f30565b5b610cef82610f5f565b9050602081019050919050565b6000819050602082019050919050565b6000819050602082019050919050565b600081519050919050565b600081519050919050565b600081519050919050565b6000602082019050919050565b6000602082019050919050565b600082825260208201905092915050565b600082825260208201905092915050565b600082825260208201905092915050565b600082825260208201905092915050565b6000610da682610e23565b9150610db183610e23565b9250827fffffffffffffffffffffffffffffffffffffffffffffffffffffffffffffffff03821115610de657610de5610ed2565b5b828201905092915050565b6000610dfc82610e03565b9050919050565b600073ffffffffffffffffffffffffffffffffffffffff82169050919050565b6000819050919050565b82818337600083830152505050565b60005b83811015610e5a578082015181840152602081019050610e3f565b83811115610e69576000848401525b50505050565b60006002820490506001821680610e8757607f821691505b60208210811415610e9b57610e9a610f01565b5b50919050565b610eaa82610f5f565b810181811067ffffffffffffffff82111715610ec957610ec8610f30565b5b80604052505050565b7f4e487b7100000000000000000000000000000000000000000000000000000000600052601160045260246000fd5b7f4e487b7100000000000000000000000000000000000000000000000000000000600052602260045260246000fd5b7f4e487b7100000000000000000000000000000000000000000000000000000000600052604160045260246000fd5b6000601f19601f8301169050919050565b7f5468652066756e64696e6720657863656564732074686520676f616c00000000600082015250565b610fa281610e23565b8114610fad57600080fd5b5056fea2646970667358221220780d71cff45383a769f0c4fd8531478f8d50c8f9d0a7f7b14990784b45869b5764736f6c63430008040033",
  "linkReferences": {},
  "deployedLinkReferences": {}
}