{
  "_format": "hh-sol-artifact-1",
  "contractName": "CrowdfundingProjects",
  "sourceName": "contracts/Crowdfunding.sol",
  "abi": [
    {
      "inputs": [
        {
          "internalType": "uint256",
          "name": "",
          "type": "uint256"
        }
      ],
      "name": "contributors",
      "outputs": [
        {
          "internalType": "address",
          "name": "contributor",
          "type": "address"
        },
        {
          "internalType": "uint256",
          "name": "amount",
          "type": "uint256"
        }
      ],
      "stateMutability": "view",
      "type": "function"
    },
    {
      "inputs": [
        {
          "internalType": "string",
          "name": "_name",
          "type": "string"
        },
        {
          "internalType": "uint256",
          "name": "_deadline",
          "type": "uint256"
        },
        {
          "internalType": "uint256",
          "name": "_fundingGoal",
          "type": "uint256"
        }
      ],
      "name": "createProject",
      "outputs": [],
      "stateMutability": "nonpayable",
      "type": "function"
    },
    {
      "inputs": [],
      "name": "getArr",
      "outputs": [
        {
          "components": [
            {
              "internalType": "string",
              "name": "projectName",
              "type": "string"
            },
            {
              "internalType": "uint256",
              "name": "deadline",
              "type": "uint256"
            },
            {
              "internalType": "uint256",
              "name": "fundingGoal",
              "type": "uint256"
            },
            {
              "internalType": "uint256",
              "name": "currentFunding",
              "type": "uint256"
            },
            {
              "internalType": "address",
              "name": "creator",
              "type": "address"
            },
            {
              "internalType": "address[]",
              "name": "supporters",
              "type": "address[]"
            }
          ],
          "internalType": "struct CrowdfundingProjects.Project[]",
          "name": "",
          "type": "tuple[]"
        }
      ],
      "stateMutability": "view",
      "type": "function"
    },
    {
      "inputs": [
        {
          "internalType": "uint256",
          "name": "_index",
          "type": "uint256"
        }
      ],
      "name": "newDonation",
      "outputs": [],
      "stateMutability": "payable",
      "type": "function"
    },
    {
      "inputs": [
        {
          "internalType": "uint256",
          "name": "",
          "type": "uint256"
        }
      ],
      "name": "projects",
      "outputs": [
        {
          "internalType": "string",
          "name": "projectName",
          "type": "string"
        },
        {
          "internalType": "uint256",
          "name": "deadline",
          "type": "uint256"
        },
        {
          "internalType": "uint256",
          "name": "fundingGoal",
          "type": "uint256"
        },
        {
          "internalType": "uint256",
          "name": "currentFunding",
          "type": "uint256"
        },
        {
          "internalType": "address",
          "name": "creator",
          "type": "address"
        }
      ],
      "stateMutability": "view",
      "type": "function"
    },
    {
      "inputs": [],
      "name": "userAmountDonated",
      "outputs": [
        {
          "internalType": "uint256",
          "name": "",
          "type": "uint256"
        }
      ],
      "stateMutability": "view",
      "type": "function"
    }
  ],
  "bytecode": "0x608060405234801561001057600080fd5b506110ad806100206000396000f3fe6080604052600436106100555760003560e01c806302d26c8b1461005a578063107046bd146100765780633cb5d100146100b7578063dda26df4146100f5578063f3a6ac5f14610120578063fb8cbced14610149575b600080fd5b610074600480360381019061006f9190610a04565b610174565b005b34801561008257600080fd5b5061009d60048036038101906100989190610a04565b6102f0565b6040516100ae959493929190610cd8565b60405180910390f35b3480156100c357600080fd5b506100de60048036038101906100d99190610a04565b6103de565b6040516100ec929190610c8d565b60405180910390f35b34801561010157600080fd5b5061010a610432565b6040516101179190610d52565b60405180910390f35b34801561012c57600080fd5b506101476004803603810190610142919061099d565b610479565b005b34801561015557600080fd5b5061015e6105b4565b60405161016b9190610cb6565b60405180910390f35b6000600182815481106101b0577f4e487b7100000000000000000000000000000000000000000000000000000000600052603260045260246000fd5b9060005260206000209060060201905080600201548160030154346101d59190610e62565b1115610216576040517f08c379a000000000000000000000000000000000000000000000000000000000815260040161020d90610d32565b60405180910390fd5b3481600301600082825461022a9190610e62565b9250508190555034600260003373ffffffffffffffffffffffffffffffffffffffff1673ffffffffffffffffffffffffffffffffffffffff16815260200190815260200160002060008282546102809190610e62565b9250508190555080600501339080600181540180825580915050600190039060005260206000200160009091909190916101000a81548173ffffffffffffffffffffffffffffffffffffffff021916908373ffffffffffffffffffffffffffffffffffffffff1602179055505050565b6001818154811061030057600080fd5b906000526020600020906006020160009150905080600001805461032390610f36565b80601f016020809104026020016040519081016040528092919081815260200182805461034f90610f36565b801561039c5780601f106103715761010080835404028352916020019161039c565b820191906000526020600020905b81548152906001019060200180831161037f57829003601f168201915b5050505050908060010154908060020154908060030154908060040160009054906101000a900473ffffffffffffffffffffffffffffffffffffffff16905085565b600081815481106103ee57600080fd5b90600052602060002090600202016000915090508060000160009054906101000a900473ffffffffffffffffffffffffffffffffffffffff16908060010154905082565b6000600260003373ffffffffffffffffffffffffffffffffffffffff1673ffffffffffffffffffffffffffffffffffffffff16815260200190815260200160002054905090565b6104816107a7565b8381600001819052508281602001818152505081816040018181525050600081606001818152505033816080019073ffffffffffffffffffffffffffffffffffffffff16908173ffffffffffffffffffffffffffffffffffffffff1681525050600181908060018154018082558091505060019003906000526020600020906006020160009091909190915060008201518160000190805190602001906105299291906107f3565b5060208201518160010155604082015181600201556060820151816003015560808201518160040160006101000a81548173ffffffffffffffffffffffffffffffffffffffff021916908373ffffffffffffffffffffffffffffffffffffffff16021790555060a08201518160050190805190602001906105ab929190610879565b50505050505050565b60606001805480602002602001604051908101604052809291908181526020016000905b8282101561079e57838290600052602060002090600602016040518060c001604052908160008201805461060b90610f36565b80601f016020809104026020016040519081016040528092919081815260200182805461063790610f36565b80156106845780601f1061065957610100808354040283529160200191610684565b820191906000526020600020905b81548152906001019060200180831161066757829003601f168201915b505050505081526020016001820154815260200160028201548152602001600382015481526020016004820160009054906101000a900473ffffffffffffffffffffffffffffffffffffffff1673ffffffffffffffffffffffffffffffffffffffff1673ffffffffffffffffffffffffffffffffffffffff1681526020016005820180548060200260200160405190810160405280929190818152602001828054801561078657602002820191906000526020600020905b8160009054906101000a900473ffffffffffffffffffffffffffffffffffffffff1673ffffffffffffffffffffffffffffffffffffffff168152602001906001019080831161073c575b505050505081525050815260200190600101906105d8565b50505050905090565b6040518060c0016040528060608152602001600081526020016000815260200160008152602001600073ffffffffffffffffffffffffffffffffffffffff168152602001606081525090565b8280546107ff90610f36565b90600052602060002090601f0160209004810192826108215760008555610868565b82601f1061083a57805160ff1916838001178555610868565b82800160010185558215610868579182015b8281111561086757825182559160200191906001019061084c565b5b5090506108759190610903565b5090565b8280548282559060005260206000209081019282156108f2579160200282015b828111156108f15782518260006101000a81548173ffffffffffffffffffffffffffffffffffffffff021916908373ffffffffffffffffffffffffffffffffffffffff16021790555091602001919060010190610899565b5b5090506108ff9190610903565b5090565b5b8082111561091c576000816000905550600101610904565b5090565b600061093361092e84610d92565b610d6d565b90508281526020810184848401111561094b57600080fd5b610956848285610ef4565b509392505050565b600082601f83011261096f57600080fd5b813561097f848260208601610920565b91505092915050565b60008135905061099781611060565b92915050565b6000806000606084860312156109b257600080fd5b600084013567ffffffffffffffff8111156109cc57600080fd5b6109d88682870161095e565b93505060206109e986828701610988565b92505060406109fa86828701610988565b9150509250925092565b600060208284031215610a1657600080fd5b6000610a2484828501610988565b91505092915050565b6000610a398383610a59565b60208301905092915050565b6000610a518383610bdf565b905092915050565b610a6281610eb8565b82525050565b610a7181610eb8565b82525050565b6000610a8282610de3565b610a8c8185610e1e565b9350610a9783610dc3565b8060005b83811015610ac8578151610aaf8882610a2d565b9750610aba83610e04565b925050600181019050610a9b565b5085935050505092915050565b6000610ae082610dee565b610aea8185610e2f565b935083602082028501610afc85610dd3565b8060005b85811015610b385784840389528151610b198582610a45565b9450610b2483610e11565b925060208a01995050600181019050610b00565b50829750879550505050505092915050565b6000610b5582610df9565b610b5f8185610e40565b9350610b6f818560208601610f03565b610b7881611026565b840191505092915050565b6000610b8e82610df9565b610b988185610e51565b9350610ba8818560208601610f03565b610bb181611026565b840191505092915050565b6000610bc9601c83610e51565b9150610bd482611037565b602082019050919050565b600060c0830160008301518482036000860152610bfc8282610b4a565b9150506020830151610c116020860182610c6f565b506040830151610c246040860182610c6f565b506060830151610c376060860182610c6f565b506080830151610c4a6080860182610a59565b5060a083015184820360a0860152610c628282610a77565b9150508091505092915050565b610c7881610eea565b82525050565b610c8781610eea565b82525050565b6000604082019050610ca26000830185610a68565b610caf6020830184610c7e565b9392505050565b60006020820190508181036000830152610cd08184610ad5565b905092915050565b600060a0820190508181036000830152610cf28188610b83565b9050610d016020830187610c7e565b610d0e6040830186610c7e565b610d1b6060830185610c7e565b610d286080830184610a68565b9695505050505050565b60006020820190508181036000830152610d4b81610bbc565b9050919050565b6000602082019050610d676000830184610c7e565b92915050565b6000610d77610d88565b9050610d838282610f68565b919050565b6000604051905090565b600067ffffffffffffffff821115610dad57610dac610ff7565b5b610db682611026565b9050602081019050919050565b6000819050602082019050919050565b6000819050602082019050919050565b600081519050919050565b600081519050919050565b600081519050919050565b6000602082019050919050565b6000602082019050919050565b600082825260208201905092915050565b600082825260208201905092915050565b600082825260208201905092915050565b600082825260208201905092915050565b6000610e6d82610eea565b9150610e7883610eea565b9250827fffffffffffffffffffffffffffffffffffffffffffffffffffffffffffffffff03821115610ead57610eac610f99565b5b828201905092915050565b6000610ec382610eca565b9050919050565b600073ffffffffffffffffffffffffffffffffffffffff82169050919050565b6000819050919050565b82818337600083830152505050565b60005b83811015610f21578082015181840152602081019050610f06565b83811115610f30576000848401525b50505050565b60006002820490506001821680610f4e57607f821691505b60208210811415610f6257610f61610fc8565b5b50919050565b610f7182611026565b810181811067ffffffffffffffff82111715610f9057610f8f610ff7565b5b80604052505050565b7f4e487b7100000000000000000000000000000000000000000000000000000000600052601160045260246000fd5b7f4e487b7100000000000000000000000000000000000000000000000000000000600052602260045260246000fd5b7f4e487b7100000000000000000000000000000000000000000000000000000000600052604160045260246000fd5b6000601f19601f8301169050919050565b7f5468652066756e64696e6720657863656564732074686520676f616c00000000600082015250565b61106981610eea565b811461107457600080fd5b5056fea2646970667358221220418b21563e336f52052944d828abcd03f0e3e3e7aaf46c2419376c2238f3816864736f6c63430008040033",
  "linkReferences": {},
  "deployedLinkReferences": {}
}